10774984420001342010302423    COMERCIAL DE TECIDOS PAULUK LTDA   PONTA GROSSA                  PR42322766502012040120120430331
11RUA DOM PEDRO II                  00337                                     84053000FLAVIO ANTONIO PAULUK       423227665000
60M20120402000000047980610030260022D02574802578900156500400000000004824080000000776488924                                     
60A2012040200000004798061003026DESC000000021769                                                                               
60A2012040200000004798061003026I   000000460639                                                                               
60R04201200000000000001000000000010000000000004606390000000000000000I                                                         
60M20120403000000047980610030260022D02579202582200156600400000000004044080000000776893332                                     
60A2012040300000004798061003026DESC000000031686                                                                               
60A2012040300000004798061003026I   000000372722                                                                               
60R04201200000000000002000000000010000000000003727220000000000000000I                                                         
60M20120404000000047980610030260022D02582502586400156700400000000003721420000000777265474                                     
60A2012040400000004798061003026DESC000000023549                                                                               
60A2012040400000004798061003026I   000000348593                                                                               
60R04201200000000000003000000000010000000000003485930000000000000000I                                                         
60M20120405000000047980610030260022D02586902589900156800400000000006043550000000777869829                                     
60A2012040500000004798061003026DESC000000030220                                                                               
60A2012040500000004798061003026I   000000574135                                                                               
60R04201200000000000004000000000010000000000005741350000000000000000I                                                         
60M20120407000000047980610030260022D02590202595000156900400000000005531230000000778422952                                     
60A2012040700000004798061003026DESC000000026460                                                                               
60A2012040700000004798061003026I   000000511683                                                                               
60A2012040700000004798061003026CANC000000014980                                                                               
60R04201200000000000005000000000010000000000005116830000000000000000I                                                         
60M20120409000000047980610030260022D02595302599500157000400000000005111020000000778934054                                     
60A2012040900000004798061003026DESC000000026885                                                                               
60A2012040900000004798061003026I   000000484217                                                                               
60R04201200000000000006000000000010000000000004842170000000000000000I                                                         
60M20120410000000047980610030260022D02599802604700157100400000000005959700000000779530024                                     
60A2012041000000004798061003026DESC000000032205                                                                               
60A2012041000000004798061003026I   000000563765                                                                               
60R04201200000000000007000000000010000000000005637650000000000000000I                                                         
60M20120411000000047980610030260022D02605002608600157200400000000004153610000000779945385                                     
60A2012041100000004798061003026DESC000000036978                                                                               
60A2012041100000004798061003026I   000000378383                                                                               
60R04201200000000000008000000000010000000000003783830000000000000000I                                                         
60M20120412000000047980610030260022D02608902612000157300400000000002914910000000780236876                                     
60A2012041200000004798061003026DESC000000029854                                                                               
60A2012041200000004798061003026I   000000261637                                                                               
60R04201200000000000009000000000010000000000002616370000000000000000I                                                         
60M20120413000000047980610030260022D02612302615400157400400000000003864710000000780623347                                     
60A2012041300000004798061003026DESC000000014266                                                                               
60A2012041300000004798061003026I   000000372205                                                                               
60R04201200000000000010000000000010000000000003722050000000000000000I                                                         
60M20120414000000047980610030260022D02615702620100157500400000000007963990000000781419746                                     
60A2012041400000004798061003026DESC000000035480                                                                               
60A2012041400000004798061003026I   000000760919                                                                               
60R04201200000000000011000000000010000000000007609190000000000000000I                                                         
60M20120416000000047980610030260022D02620402623400157600400000000003404690000000781760215                                     
60A2012041600000004798061003026DESC000000019546                                                                               
60A2012041600000004798061003026I   000000320923                                                                               
60R04201200000000000012000000000010000000000003209230000000000000000I                                                         
60M20120417000000047980610030260022D02623702626200157700400000000004553950000000782215610                                     
60A2012041700000004798061003026DESC000000053865                                                                               
60A2012041700000004798061003026I   000000401530                                                                               
60R04201200000000000013000000000010000000000004015300000000000000000I                                                         
60M20120418000000047980610030260022D02526502629700157800400000000003657210000000782581331                                     
60A2012041800000004798061003026DESC000000023685                                                                               
60A2012041800000004798061003026I   000000342036                                                                               
60R04201200000000000014000000000010000000000003420360000000000000000I                                                         
60M20120419000000047980610030260022D02630002632700157900400000000003397520000000782921083                                     
60A2012041900000004798061003026DESC000000027178                                                                               
60A2012041900000004798061003026I   000000312574                                                                               
60R04201200000000000015000000000010000000000003125740000000000000000I                                                         
60M20120420000000047980610030260022D02632902635600158000400000000004428900000000783363973                                     
60A2012042000000004798061003026DESC000000041602                                                                               
60A2012042000000004798061003026I   000000393548                                                                               
60A2012042000000004798061003026CANC000000007740                                                                               
60R04201200000000000016000000000010000000000003935480000000000000000I                                                         
60M20120423000000047980610030260022D02635902639600158100400000000004771770000000783841150                                     
60A2012042300000004798061003026DESC000000021151                                                                               
60A2012042300000004798061003026I   000000456026                                                                               
60R04201200000000000017000000000010000000000004560260000000000000000I                                                         
60M20120424000000047980610030260022D02639902642600158200400000000003292520000000784170402                                     
60A2012042400000004798061003026DESC000000014607                                                                               
60A2012042400000004798061003026I   000000309445                                                                               
60A2012042400000004798061003026CANC000000005200                                                                               
60R04201200000000000018000000000010000000000003094450000000000000000I                                                         
60M20120425000000047980610030260022D02642902646000158300400000000004939530000000784664355                                     
60A2012042500000004798061003026DESC000000012471                                                                               
60A2012042500000004798061003026I   000000481482                                                                               
60R04201200000000000019000000000010000000000004814820000000000000000I                                                         
60M20120426000000047980610030260022D02646302648900158400400000000004325900000000785096945                                     
60A2012042600000004798061003026DESC000000027397                                                                               
60A2012042600000004798061003026I   000000405193                                                                               
60R04201200000000000020000000000010000000000004051930000000000000000I                                                         
60M20120427000000047980610030260022D02649202653600158500400000000005721500000000785669095                                     
60A2012042700000004798061003026DESC000000047782                                                                               
60A2012042700000004798061003026I   000000524368                                                                               
60R04201200000000000021000000000010000000000005243680000000000000000I                                                         
60M20120428000000047980610030260022D02653902658100158600400000000006565200000000786325615                                     
60A2012042800000004798061003026DESC000000027209                                                                               
60A2012042800000004798061003026I   000000629311                                                                               
60R04201200000000000022000000000010000000000006293110000000000000000I                                                         
60M20120430000000047980610030260022D02658402666200158700400000000009786780000000787304293                                     
60A2012043000000004798061003026DESC000000059955                                                                               
60A2012043000000004798061003026I   000000918723                                                                               
60R04201200000000000023000000000010000000000009187230000000000000000I                                                         
7520120402201204300000000000000162171000DIA20120402                                          UN    000000000000000000000000000
7520120402201204300000000000000262171000DIA20120403                                          UN    000000000000000000000000000
7520120402201204300000000000000362171000DIA20120404                                          UN    000000000000000000000000000
7520120402201204300000000000000462171000DIA20120405                                          UN    000000000000000000000000000
7520120402201204300000000000000562171000DIA20120407                                          UN    000000000000000000000000000
7520120402201204300000000000000662171000DIA20120409                                          UN    000000000000000000000000000
7520120402201204300000000000000762171000DIA20120410                                          UN    000000000000000000000000000
7520120402201204300000000000000862171000DIA20120411                                          UN    000000000000000000000000000
7520120402201204300000000000000962171000DIA20120412                                          UN    000000000000000000000000000
7520120402201204300000000000001062171000DIA20120413                                          UN    000000000000000000000000000
7520120402201204300000000000001162171000DIA20120414                                          UN    000000000000000000000000000
7520120402201204300000000000001262171000DIA20120416                                          UN    000000000000000000000000000
7520120402201204300000000000001362171000DIA20120417                                          UN    000000000000000000000000000
7520120402201204300000000000001462171000DIA20120418                                          UN    000000000000000000000000000
7520120402201204300000000000001562171000DIA20120419                                          UN    000000000000000000000000000
7520120402201204300000000000001662171000DIA20120420                                          UN    000000000000000000000000000
7520120402201204300000000000001762171000DIA20120423                                          UN    000000000000000000000000000
7520120402201204300000000000001862171000DIA20120424                                          UN    000000000000000000000000000
7520120402201204300000000000001962171000DIA20120425                                          UN    000000000000000000000000000
7520120402201204300000000000002062171000DIA20120426                                          UN    000000000000000000000000000
7520120402201204300000000000002162171000DIA20120427                                          UN    000000000000000000000000000
7520120402201204300000000000002262171000DIA20120428                                          UN    000000000000000000000000000
7520120402201204300000000000002362171000DIA20120430                                          UN    000000000000000000000000000
90774984420001342010302423    600000009575000000239900000121                                                                 1