10774984420001342010302423    COMERCIAL DE TECIDOS PAULUK LTDA   PONTA GROSSA                  PR42322766502011120120111231331
11RUA DOM PEDRO II                  00337                                     84053000FLAVIO ANTONIO PAULUK       423227665000
60M20111201000000047980610030260022D01965701969700146100400000000005951020000000695830981                                     
60M20111202000000047980610030260022D01970001974100146200400000000005698990000000696400880                                     
60M20111203000000047980610030260022D01974401978900146300400000000008690000000000697269880                                     
60M20111205000000047980610030260022D01979201983700146400400000000006211340000000697891014                                     
60M20111206000000047980610030260022D01984001988700146500400000000008644930000000698755507                                     
60M20111207000000047980610030260022D01989001995000146600400000000010845160000000699840023                                     
60M20111208000000047980610030260022D01995302000600146700400000000008941740000000700734197                                     
60M20111209000000047980610030260022D02000902003900146800400000000005214350000000701255632                                     
60M20111210000000047980610030260022D02004202011800146900400000000015285380000000702784170                                     
60M20111212000000047980610030260022D02012102016900147000400000000007118480000000703496018                                     
60M20111213000000047980610030260022D02017202024000147100400000000010775820000000704573600                                     
60M20111214000000047980610030260022D02024602029600147200400000000006872290000000705260829                                     
60M20111215000000047980610030260022D02029902035300147300400000000009314040000000706192233                                     
60M20111216000000047980610030260022D02035902041300147400400000000006926630000000706884896                                     
60M20111217000000047980610030260022D02041802049400147500400000000011950580000000708079954                                     
60M20111219000000047980610030260022D02049902056700147600400000000011968860000000709276840                                     
60M20111220000000047980610030260022D02057002063500147700400000000010107280000000710287568                                     
60M20111221000000047980610030260022D02063802072400147800400000000013688210000000711656389                                     
60M20111222000000047980610030260022D02072702082500147900400000000015411340000000713197523                                     
60M20111223000000047980610030260022D02082802094600148000400000000017473500000000714944873                                     
60M20111224000000047980610030260022D02094902103500148100400000000013152700000000716260143                                     
60M20111226000000047980610030260022D02103802107400148200400000000005027650000000716762908                                     
60M20111227000000047980610030260022D02107702111500148300400000000006113290000000717374237                                     
60M20111228000000047980610030260022D02111802115800148400400000000007510320000000718125269                                     
60M20111229000000047980610030260022D02116102120300148500400000000004938980000000718619167                                     
60M20111230000000047980610030260022D02120702125400148600400000000006465740000000719265741                                     
60M20111231000000047980610030260022D02125702128900148700400000000005842000000000719849941                                     
60A2011120100000004798061003026DESC000000017362                                                                               
60A2011120100000004798061003026I   000000577740                                                                               
60A2011120200000004798061003026DESC000000045893                                                                               
60A2011120200000004798061003026I   000000524006                                                                               
60A2011120300000004798061003026DESC000000015349                                                                               
60A2011120300000004798061003026I   000000853651                                                                               
60A2011120500000004798061003026DESC000000026335                                                                               
60A2011120500000004798061003026I   000000590859                                                                               
60A2011120500000004798061003026CANC000000003940                                                                               
60A2011120600000004798061003026DESC000000023239                                                                               
60A2011120600000004798061003026I   000000836084                                                                               
60A2011120600000004798061003026CANC000000005170                                                                               
60A2011120700000004798061003026DESC000000051385                                                                               
60A2011120700000004798061003026I   000001033131                                                                               
60A2011120800000004798061003026DESC000000050871                                                                               
60A2011120800000004798061003026I   000000843303                                                                               
60A2011120900000004798061003026DESC000000042634                                                                               
60A2011120900000004798061003026I   000000478801                                                                               
60A2011121000000004798061003026DESC000000059695                                                                               
60A2011121000000004798061003026I   000001365963                                                                               
60A2011121000000004798061003026CANC000000102880                                                                               
60A2011121200000004798061003026DESC000000030875                                                                               
60A2011121200000004798061003026I   000000612333                                                                               
60A2011121200000004798061003026CANC000000068640                                                                               
60A2011121300000004798061003026DESC000000064936                                                                               
60A2011121300000004798061003026I   000001012646                                                                               
60A2011121400000004798061003026DESC000000036087                                                                               
60A2011121400000004798061003026I   000000651142                                                                               
60A2011121500000004798061003026DESC000000065023                                                                               
60A2011121500000004798061003026I   000000866381                                                                               
60A2011121600000004798061003026DESC000000057172                                                                               
60A2011121600000004798061003026I   000000621701                                                                               
60A2011121600000004798061003026CANC000000013790                                                                               
60A2011121700000004798061003026DESC000000062379                                                                               
60A2011121700000004798061003026I   000001132679                                                                               
60A2011121900000004798061003026DESC000000053434                                                                               
60A2011121900000004798061003026I   000001143452                                                                               
60A2011122000000004798061003026DESC000000055183                                                                               
60A2011122000000004798061003026I   000000955545                                                                               
60A2011122100000004798061003026DESC000000062060                                                                               
60A2011122100000004798061003026I   000001306761                                                                               
60A2011122200000004798061003026DESC000000095479                                                                               
60A2011122200000004798061003026I   000001445655                                                                               
60A2011122300000004798061003026DESC000000075711                                                                               
60A2011122300000004798061003026I   000001661369                                                                               
60A2011122300000004798061003026CANC000000010270                                                                               
60A2011122400000004798061003026DESC000000067512                                                                               
60A2011122400000004798061003026I   000001247758                                                                               
60A2011122600000004798061003026DESC000000047894                                                                               
60A2011122600000004798061003026I   000000423571                                                                               
60A2011122600000004798061003026CANC000000031300                                                                               
60A2011122700000004798061003026DESC000000052199                                                                               
60A2011122700000004798061003026I   000000559130                                                                               
60A2011122800000004798061003026DESC000000048554                                                                               
60A2011122800000004798061003026I   000000702478                                                                               
60A2011122900000004798061003026DESC000000047173                                                                               
60A2011122900000004798061003026I   000000446725                                                                               
60A2011123000000004798061003026DESC000000061590                                                                               
60A2011123000000004798061003026I   000000584984                                                                               
60A2011123100000004798061003026DESC000000025608                                                                               
60A2011123100000004798061003026I   000000546652                                                                               
60A2011123100000004798061003026CANC000000011940                                                                               
60R12201100000000000001000000000010000000000005777400000000000000000I                                                         
60R12201100000000000001000000000010000000000005240060000000000000000I                                                         
60R12201100000000000001000000000010000000000008536510000000000000000I                                                         
60R12201100000000000001000000000010000000000005908590000000000000000I                                                         
60R12201100000000000001000000000010000000000008360840000000000000000I                                                         
60R12201100000000000001000000000010000000000010331310000000000000000I                                                         
60R12201100000000000001000000000010000000000008433030000000000000000I                                                         
60R12201100000000000001000000000010000000000004788010000000000000000I                                                         
60R12201100000000000001000000000010000000000013659630000000000000000I                                                         
60R12201100000000000001000000000010000000000006123330000000000000000I                                                         
60R12201100000000000001000000000010000000000010126460000000000000000I                                                         
60R12201100000000000001000000000010000000000006511420000000000000000I                                                         
60R12201100000000000001000000000010000000000008663810000000000000000I                                                         
60R12201100000000000001000000000010000000000006217010000000000000000I                                                         
60R12201100000000000001000000000010000000000011326790000000000000000I                                                         
60R12201100000000000001000000000010000000000011434520000000000000000I                                                         
60R12201100000000000001000000000010000000000009555450000000000000000I                                                         
60R12201100000000000001000000000010000000000013067610000000000000000I                                                         
60R12201100000000000001000000000010000000000014456550000000000000000I                                                         
60R12201100000000000001000000000010000000000016613690000000000000000I                                                         
60R12201100000000000001000000000010000000000012477580000000000000000I                                                         
60R12201100000000000001000000000010000000000004235710000000000000000I                                                         
60R12201100000000000001000000000010000000000005591300000000000000000I                                                         
60R12201100000000000001000000000010000000000007024780000000000000000I                                                         
60R12201100000000000001000000000010000000000004467250000000000000000I                                                         
60R12201100000000000001000000000010000000000005849840000000000000000I                                                         
60R12201100000000000001000000000010000000000005466520000000000000000I                                                         
7520111201201112310000000000000162171000DIA20111201                                          UN    000000000000000000000000000
7520111201201112310000000000000262171000DIA20111202                                          UN    000000000000000000000000000
7520111201201112310000000000000362171000DIA20111203                                          UN    000000000000000000000000000
7520111201201112310000000000000462171000DIA20111205                                          UN    000000000000000000000000000
7520111201201112310000000000000562171000DIA20111206                                          UN    000000000000000000000000000
7520111201201112310000000000000662171000DIA20111207                                          UN    000000000000000000000000000
7520111201201112310000000000000762171000DIA20111208                                          UN    000000000000000000000000000
7520111201201112310000000000000862171000DIA20111209                                          UN    000000000000000000000000000
7520111201201112310000000000000962171000DIA20111210                                          UN    000000000000000000000000000
7520111201201112310000000000001062171000DIA20111212                                          UN    000000000000000000000000000
7520111201201112310000000000001162171000DIA20111213                                          UN    000000000000000000000000000
7520111201201112310000000000001262171000DIA20111214                                          UN    000000000000000000000000000
7520111201201112310000000000001362171000DIA20111215                                          UN    000000000000000000000000000
7520111201201112310000000000001462171000DIA20111216                                          UN    000000000000000000000000000
7520111201201112310000000000001562171000DIA20111217                                          UN    000000000000000000000000000
7520111201201112310000000000001662171000DIA20111219                                          UN    000000000000000000000000000
7520111201201112310000000000001762171000DIA20111220                                          UN    000000000000000000000000000
7520111201201112310000000000001862171000DIA20111221                                          UN    000000000000000000000000000
7520111201201112310000000000001962171000DIA20111222                                          UN    000000000000000000000000000
7520111201201112310000000000002062171000DIA20111223                                          UN    000000000000000000000000000
7520111201201112310000000000002162171000DIA20111224                                          UN    000000000000000000000000000
7520111201201112310000000000002262171000DIA20111226                                          UN    000000000000000000000000000
7520111201201112310000000000002362171000DIA20111227                                          UN    000000000000000000000000000
7520111201201112310000000000002462171000DIA20111228                                          UN    000000000000000000000000000
7520111201201112310000000000002562171000DIA20111229                                          UN    000000000000000000000000000
7520111201201112310000000000002662171000DIA20111230                                          UN    000000000000000000000000000
7520111201201112310000000000002762171000DIA20111231                                          UN    000000000000000000000000000
90774984420001342010302423    600000251175000024579900004971                                                                 1