10774984420001342010302423    COMERCIAL DE TECIDOS PAULUK LTDA   PONTA GROSSA                  PR42322766502012020120120229331
11RUA DOM PEDRO II                  00337                                     84053000FLAVIO ANTONIO PAULUK       423227665000
60M20120201000000047980610030260022D02322402332900151400400000000012637000000000749410327                                     
60A2012020100000004798061003026DESC000000075405                                                                               
60A2012020100000004798061003026I   000001188295                                                                               
60R02201200000000000001000000000010000000000011882950000000000000000I                                                         
60M20120202000000047980610030260022D02333202341500151500400000000009480010000000750358328                                     
60A2012020200000004798061003026DESC000000031800                                                                               
60A2012020200000004798061003026I   000000898921                                                                               
60A2012020200000004798061003026CANC000000017280                                                                               
60R02201200000000000002000000000010000000000008989210000000000000000I                                                         
60M20120203000000047980610030260022D02341802351600151600400000000011986630000000751556991                                     
60A2012020300000004798061003026DESC000000051706                                                                               
60A2012020300000004798061003026I   000001146957                                                                               
60R02201200000000000003000000000010000000000011469570000000000000000I                                                         
60M20120204000000047980610030260022D02351902467300151700400000000018812700000000753438261                                     
60A2012020400000004798061003026DESC000000093875                                                                               
60A2012020400000004798061003026I   000001769305                                                                               
60A2012020400000004798061003026CANC000000018090                                                                               
60R02201200000000000004000000000010000000000017693050000000000000000I                                                         
60M20120206000000047980610030260022D02367602382900151800400000000017950270000000755233288                                     
60A2012020600000004798061003026DESC000000064100                                                                               
60A2012020600000004798061003026I   000001689037                                                                               
60A2012020600000004798061003026CANC000000041890                                                                               
60R02201200000000000005000000000010000000000016890370000000000000000I                                                         
60M20120207000000047980610030260022D02383202396000151900400000000012637170000000756497005                                     
60A2012020700000004798061003026DESC000000066770                                                                               
60A2012020700000004798061003026I   000001196947                                                                               
60R02201200000000000006000000000010000000000011969470000000000000000I                                                         
60M20120208000000047980610030260022D02396302405200152000400000000009113150000000757408320                                     
60A2012020800000004798061003026DESC000000071666                                                                               
60A2012020800000004798061003026I   000000808339                                                                               
60A2012020800000004798061003026CANC000000031310                                                                               
60R02201200000000000007000000000010000000000008083390000000000000000I                                                         
60M20120209000000047980610030260022D02405502413500152100400000000008697700000000758278090                                     
60A2012020900000004798061003026DESC000000040675                                                                               
60A2012020900000004798061003026I   000000829095                                                                               
60R02201200000000000008000000000010000000000008290950000000000000000I                                                         
60M20120210000000047980610030260022D02413802418300152200400000000005068000000000758784890                                     
60A2012021000000004798061003026DESC000000021511                                                                               
60A2012021000000004798061003026I   000000485289                                                                               
60R02201200000000000009000000000010000000000004852890000000000000000I                                                         
60M20120211000000047980610030260022D02418602428200152300400000000010590510000000759843941                                     
60A2012021100000004798061003026DESC000000056476                                                                               
60A2012021100000004798061003026I   000001002575                                                                               
60R02201200000000000010000000000010000000000010025750000000000000000I                                                         
60M20120213000000047980610030260022D02428502433600152400400000000005467200000000760390661                                     
60A2012021300000004798061003026DESC000000054309                                                                               
60A2012021300000004798061003026I   000000492411                                                                               
60R02201200000000000011000000000010000000000004924110000000000000000I                                                         
60M20120214000000047980610030260022D02433902437400152500400000000003971200000000760787781                                     
60A2012021400000004798061003026DESC000000037321                                                                               
60A2012021400000004798061003026I   000000359799                                                                               
60R02201200000000000012000000000010000000000003597990000000000000000I                                                         
60M20120215000000047980610030260022D02437702442400152600400000000005922220000000761380003                                     
60A2012021500000004798061003026DESC000000042544                                                                               
60A2012021500000004798061003026I   000000541058                                                                               
60A2012021500000004798061003026CANC000000008620                                                                               
60R02201200000000000013000000000010000000000005410580000000000000000I                                                         
60M20120216000000047980610030260022D02442702446600152700400000000003722420000000761752245                                     
60A2012021600000004798061003026DESC000000021252                                                                               
60A2012021600000004798061003026I   000000350990                                                                               
60R02201200000000000014000000000010000000000003509900000000000000000I                                                         
60M20120217000000047980610030260022D02446902450400152800400000000003534400000000762105685                                     
60A2012021700000004798061003026DESC000000017481                                                                               
60A2012021700000004798061003026I   000000335959                                                                               
60R02201200000000000015000000000010000000000003359590000000000000000I                                                         
60M20120218000000047980610030260022D02450702454600152900400000000006088580000000762714543                                     
60A2012021800000004798061003026DESC000000032380                                                                               
60A2012021800000004798061003026I   000000576478                                                                               
60R02201200000000000016000000000010000000000005764780000000000000000I                                                         
60M20120220000000047980610030260022D02454902458200153000400000000004026090000000763117152                                     
60A2012022000000004798061003026DESC000000006797                                                                               
60A2012022000000004798061003026I   000000395812                                                                               
60R02201200000000000017000000000010000000000003958120000000000000000I                                                         
60M20120222000000047980610030260022D02458502460500153100400000000002481500000000763365302                                     
60A2012022200000004798061003026DESC000000016720                                                                               
60A2012022200000004798061003026I   000000231430                                                                               
60R02201200000000000018000000000010000000000002314300000000000000000I                                                         
60M20120223000000047980610030260022D02460802464100153200400000000004415460000000763806848                                     
60A2012022300000004798061003026DESC000000028631                                                                               
60A2012022300000004798061003026I   000000376585                                                                               
60A2012022300000004798061003026CANC000000036330                                                                               
60R02201200000000000019000000000010000000000003765850000000000000000I                                                         
60M20120224000000047980610030260022D02464402466100153300400000000002423010000000764049149                                     
60A2012022400000004798061003026DESC000000006078                                                                               
60A2012022400000004798061003026I   000000236223                                                                               
60R02201200000000000020000000000010000000000002362230000000000000000I                                                         
60M20120225000000047980610030260022D02466402469500153400400000000005350550000000764584204                                     
60A2012022500000004798061003026DESC000000029629                                                                               
60A2012022500000004798061003026I   000000505426                                                                               
60R02201200000000000021000000000010000000000005054260000000000000000I                                                         
60M20120227000000047980610030260022D02469802473100153500400000000003108710000000764895075                                     
60A2012022700000004798061003026DESC000000012465                                                                               
60A2012022700000004798061003026I   000000298406                                                                               
60R02201200000000000022000000000010000000000002984060000000000000000I                                                         
60M20120228000000047980610030260022D02473402476900153600400000000003885410000000765283616                                     
60A2012022800000004798061003026DESC000000028336                                                                               
60A2012022800000004798061003026I   000000360205                                                                               
60R02201200000000000023000000000010000000000003602050000000000000000I                                                         
60M20120229000000047980610030260022D02477202480500153700400000000004071650000000765690781                                     
60A2012022900000004798061003026DESC000000020585                                                                               
60A2012022900000004798061003026I   000000386580                                                                               
60R02201200000000000024000000000010000000000003865800000000000000000I                                                         
7520120201201202290000000000000162171000DIA20120201                                          UN    000000000000000000000000000
7520120201201202290000000000000262171000DIA20120202                                          UN    000000000000000000000000000
7520120201201202290000000000000362171000DIA20120203                                          UN    000000000000000000000000000
7520120201201202290000000000000462171000DIA20120204                                          UN    000000000000000000000000000
7520120201201202290000000000000562171000DIA20120206                                          UN    000000000000000000000000000
7520120201201202290000000000000662171000DIA20120207                                          UN    000000000000000000000000000
7520120201201202290000000000000762171000DIA20120208                                          UN    000000000000000000000000000
7520120201201202290000000000000862171000DIA20120209                                          UN    000000000000000000000000000
7520120201201202290000000000000962171000DIA20120210                                          UN    000000000000000000000000000
7520120201201202290000000000001062171000DIA20120211                                          UN    000000000000000000000000000
7520120201201202290000000000001162171000DIA20120213                                          UN    000000000000000000000000000
7520120201201202290000000000001262171000DIA20120214                                          UN    000000000000000000000000000
7520120201201202290000000000001362171000DIA20120215                                          UN    000000000000000000000000000
7520120201201202290000000000001462171000DIA20120216                                          UN    000000000000000000000000000
7520120201201202290000000000001562171000DIA20120217                                          UN    000000000000000000000000000
7520120201201202290000000000001662171000DIA20120218                                          UN    000000000000000000000000000
7520120201201202290000000000001762171000DIA20120220                                          UN    000000000000000000000000000
7520120201201202290000000000001862171000DIA20120222                                          UN    000000000000000000000000000
7520120201201202290000000000001962171000DIA20120223                                          UN    000000000000000000000000000
7520120201201202290000000000002062171000DIA20120224                                          UN    000000000000000000000000000
7520120201201202290000000000002162171000DIA20120225                                          UN    000000000000000000000000000
7520120201201202290000000000002262171000DIA20120227                                          UN    000000000000000000000000000
7520120201201202290000000000002362171000DIA20120228                                          UN    000000000000000000000000000
7520120201201202290000000000002462171000DIA20120229                                          UN    000000000000000000000000000
90774984420001342010302423    600000010275000000249900000129                                                                 1