10774984420001342010302423    COMERCIAL DE TECIDOS PAULUK LTDA   PONTA GROSSA                  PR42322766502012010120120131331
11RUA DOM PEDRO II                  00337                                     84053000FLAVIO ANTONIO PAULUK       423227665000
60M20120102000000047980610030260022D02129202132900148800400000000005632870000000720413228                                     
60A2012010200000004798061003026DESC000000026769                                                                               
60A2012010200000004798061003026I   000000536518                                                                               
60R01201200000000000001000000000010000000000005365180000000000000000I                                                         
60M20120103000000047980610030260022D02133202137700148900400000000006796390000000721092867                                     
60A2012010300000004798061003026DESC000000039078                                                                               
60A2012010300000004798061003026I   000000640561                                                                               
60R01201200000000000002000000000010000000000006405610000000000000000I                                                         
60M20120104000000047980610030260022D02138002142500149000400000000007715830000000721864450                                     
60A2012010400000004798061003026DESC000000059004                                                                               
60A2012010400000004798061003026I   000000712579                                                                               
60R01201200000000000003000000000010000000000007125790000000000000000I                                                         
60M20120105000000047980610030260022D02142802179300149100400000000009722830000000722836733                                     
60A2012010500000004798061003026DESC000000050480                                                                               
60A2012010500000004798061003026I   000000895645                                                                               
60A2012010500000004798061003026CANC000000026158                                                                               
60R01201200000000000004000000000010000000000008956450000000000000000I                                                         
60M20120106000000047980610030260022D02149602156600149200400000000010929570000000723929690                                     
60A2012010600000004798061003026DESC000000067120                                                                               
60A2012010600000004798061003026I   000001004247                                                                               
60A2012010600000004798061003026CANC000000021590                                                                               
60R01201200000000000005000000000010000000000010042470000000000000000I                                                         
60M20120107000000047980610030260022D02156902162200149300400000000008674710000000724797161                                     
60A2012010700000004798061003026DESC000000046094                                                                               
60A2012010700000004798061003026I   000000773947                                                                               
60A2012010700000004798061003026CANC000000047430                                                                               
60R01201200000000000006000000000010000000000007739470000000000000000I                                                         
60M20120109000000047980610030260022D02162502170800149400400000000011181900000000725915351                                     
60A2012010900000004798061003026DESC000000063812                                                                               
60A2012010900000004798061003026I   000001038758                                                                               
60A2012010900000004798061003026CANC000000015620                                                                               
60R01201200000000000007000000000010000000000010387580000000000000000I                                                         
60M20120110000000047980610030260022D02171102176900149500400000000009547200000000726870071                                     
60A2012011000000004798061003026DESC000000055243                                                                               
60A2012011000000004798061003026I   000000899477                                                                               
60R01201200000000000008000000000010000000000008994770000000000000000I                                                         
60M20120111000000047980610030260022D02177202182400149600400000000008464500000000727716521                                     
60A2012011100000004798061003026DESC000000042703                                                                               
60A2012011100000004798061003026I   000000803747                                                                               
60R01201200000000000009000000000010000000000008037470000000000000000I                                                         
60M20120112000000047980610030260022D02182702189100149700400000000009480490000000728664570                                     
60A2012011200000004798061003026DESC000000043865                                                                               
60A2012011200000004798061003026I   000000904184                                                                               
60R01201200000000000010000000000010000000000009041840000000000000000I                                                         
60M20120113000000047980610030260022D02189402195900149800400000000009438120000000729608382                                     
60A2012011300000004798061003026DESC000000082353                                                                               
60A2012011300000004798061003026I   000000861459                                                                               
60R01201200000000000011000000000010000000000008614590000000000000000I                                                         
60M20120114000000047980610030260022D02196202202900149900400000000011258800000000730734262                                     
60A2012011400000004798061003026DESC000000039404                                                                               
60A2012011400000004798061003026I   000001078756                                                                               
60A2012011400000004798061003026CANC000000007720                                                                               
60R01201200000000000012000000000010000000000010787560000000000000000I                                                         
60M20120116000000047980610030260022D02203202211200150000400000000012819410000000732016203                                     
60A2012011600000004798061003026DESC000000068650                                                                               
60A2012011600000004798061003026I   000001174141                                                                               
60A2012011600000004798061003026CANC000000039150                                                                               
60R01201200000000000013000000000010000000000011741410000000000000000I                                                         
60M20120117000000047980610030260022D02211502220300150100400000000011100490000000733126252                                     
60A2012011700000004798061003026DESC000000051055                                                                               
60A2012011700000004798061003026I   000001058994                                                                               
60R01201200000000000014000000000010000000000010589940000000000000000I                                                         
60M20120118000000047980610030260022D02220602227800150200400000000009988800000000734125132                                     
60A2012011800000004798061003026DESC000000045876                                                                               
60A2012011800000004798061003026I   000000934614                                                                               
60A2012011800000004798061003026CANC000000018390                                                                               
60R01201200000000000015000000000010000000000009346140000000000000000I                                                         
60M20120119000000047980610030260022D02228102235100150300400000000010357950000000735160927                                     
60A2012011900000004798061003026DESC000000079340                                                                               
60A2012011900000004798061003026I   000000937995                                                                               
60A2012011900000004798061003026CANC000000018460                                                                               
60R01201200000000000016000000000010000000000009379950000000000000000I                                                         
60M20120120000000047980610030260022D02235402240600150400400000000009091640000000736070091                                     
60A2012012000000004798061003026DESC000000036103                                                                               
60A2012012000000004798061003026I   000000873061                                                                               
60R01201200000000000017000000000010000000000008730610000000000000000I                                                         
60M20120121000000047980610030260022D02241002251100150500400000000016357880000000737705879                                     
60A2012012100000004798061003026DESC000000074315                                                                               
60A2012012100000004798061003026I   000001561473                                                                               
60R01201200000000000018000000000010000000000015614730000000000000000I                                                         
60M20120123000000047980610030260022D02251402261500150600400000000015717150000000739277594                                     
60A2012012300000004798061003026DESC000000077973                                                                               
60A2012012300000004798061003026I   000001477602                                                                               
60A2012012300000004798061003026CANC000000016140                                                                               
60R01201200000000000019000000000010000000000014776020000000000000000I                                                         
60M20120124000000047980610030260022D02261802269900150700400000000011243740000000740401968                                     
60A2012012400000004798061003026DESC000000080747                                                                               
60A2012012400000004798061003026I   000001043627                                                                               
60R01201200000000000020000000000010000000000010436270000000000000000I                                                         
60M20120125000000047980610030260022D02270202277400150800400000000012833430000000741685311                                     
60A2012012500000004798061003026DESC000000074085                                                                               
60A2012012500000004798061003026I   000001209258                                                                               
60R01201200000000000021000000000010000000000012092580000000000000000I                                                         
60M20120126000000047980610030260022D02277702284600150900400000000010316640000000742716975                                     
60A2012012600000004798061003026DESC000000059293                                                                               
60A2012012600000004798061003026I   000000956761                                                                               
60A2012012600000004798061003026CANC000000015610                                                                               
60R01201200000000000022000000000010000000000009567610000000000000000I                                                         
60M20120127000000047980610030260022D02248902293000151000400000000012428360000000743959811                                     
60A2012012700000004798061003026DESC000000072745                                                                               
60A2012012700000004798061003026I   000001170091                                                                               
60R01201200000000000023000000000010000000000011700910000000000000000I                                                         
60M20120128000000047980610030260022D02293302303100151100400000000016207200000000745580531                                     
60A2012012800000004798061003026DESC000000062538                                                                               
60A2012012800000004798061003026I   000001543712                                                                               
60A2012012800000004798061003026CANC000000014470                                                                               
60R01201200000000000024000000000010000000000015437120000000000000000I                                                         
60M20120130000000047980610030260022D02303402312200151200400000000011398850000000746720416                                     
60A2012013000000004798061003026DESC000000067413                                                                               
60A2012013000000004798061003026I   000001072472                                                                               
60R01201200000000000025000000000010000000000010724720000000000000000I                                                         
60M20120131000000047980610030260022D02312402322100151300400000000014262110000000748146627                                     
60A2012013100000004798061003026DESC000000079738                                                                               
60A2012013100000004798061003026I   000001341363                                                                               
60A2012013100000004798061003026CANC000000005110                                                                               
60R01201200000000000026000000000010000000000013413630000000000000000I                                                         
7520120101201201310000000000000162171000DIA20120102                                          UN    000000000000000000000000000
7520120101201201310000000000000262171000DIA20120103                                          UN    000000000000000000000000000
7520120101201201310000000000000362171000DIA20120104                                          UN    000000000000000000000000000
7520120101201201310000000000000462171000DIA20120105                                          UN    000000000000000000000000000
7520120101201201310000000000000562171000DIA20120106                                          UN    000000000000000000000000000
7520120101201201310000000000000662171000DIA20120107                                          UN    000000000000000000000000000
7520120101201201310000000000000762171000DIA20120109                                          UN    000000000000000000000000000
7520120101201201310000000000000862171000DIA20120110                                          UN    000000000000000000000000000
7520120101201201310000000000000962171000DIA20120111                                          UN    000000000000000000000000000
7520120101201201310000000000001062171000DIA20120112                                          UN    000000000000000000000000000
7520120101201201310000000000001162171000DIA20120113                                          UN    000000000000000000000000000
7520120101201201310000000000001262171000DIA20120114                                          UN    000000000000000000000000000
7520120101201201310000000000001362171000DIA20120116                                          UN    000000000000000000000000000
7520120101201201310000000000001462171000DIA20120117                                          UN    000000000000000000000000000
7520120101201201310000000000001562171000DIA20120118                                          UN    000000000000000000000000000
7520120101201201310000000000001662171000DIA20120119                                          UN    000000000000000000000000000
7520120101201201310000000000001762171000DIA20120120                                          UN    000000000000000000000000000
7520120101201201310000000000001862171000DIA20120121                                          UN    000000000000000000000000000
7520120101201201310000000000001962171000DIA20120123                                          UN    000000000000000000000000000
7520120101201201310000000000002062171000DIA20120124                                          UN    000000000000000000000000000
7520120101201201310000000000002162171000DIA20120125                                          UN    000000000000000000000000000
7520120101201201310000000000002262171000DIA20120126                                          UN    000000000000000000000000000
7520120101201201310000000000002362171000DIA20120127                                          UN    000000000000000000000000000
7520120101201201310000000000002462171000DIA20120128                                          UN    000000000000000000000000000
7520120101201201310000000000002562171000DIA20120130                                          UN    000000000000000000000000000
7520120101201201310000000000002662171000DIA20120131                                          UN    000000000000000000000000000
90774984420001342010302423    600000011675000000269900000145                                                                 1