10774984420001342010302423    COMERCIAL DE TECIDOS PAULUK LTDA   PONTA GROSSA                  PR42322766502012070120120731331
11RUA DOM PEDRO II                  00337                                     84053000FLAVIO ANTONIO PAULUK       423227665000
60M20120702000000047980610030260022D02863802864900163900400000000002300300000000813996466                                     
60A2012070200000004798061003026DESC000000003618                                                                               
60A2012070200000004798061003026I   000000226412                                                                               
60R07201200000000000001000000000010000000000002264120000000000000000I                                                         
60M20120703000000047980610030260022D02865202867100164000400000000001709550000000814167421                                     
60A2012070300000004798061003026DESC000000015639                                                                               
60A2012070300000004798061003026I   000000155316                                                                               
60R07201200000000000002000000000010000000000001553160000000000000000I                                                         
60M20120704000000047980610030260022D02867402870500164100400000000003979330000000814565354                                     
60A2012070400000004798061003026DESC000000017937                                                                               
60A2012070400000004798061003026I   000000379996                                                                               
60R07201200000000000003000000000010000000000003799960000000000000000I                                                         
60M20120705000000047980610030260022D02870802872900164200400000000003071760000000814872530                                     
60A2012070500000004798061003026DESC000000007212                                                                               
60A2012070500000004798061003026I   000000299964                                                                               
60R07201200000000000004000000000010000000000002999640000000000000000I                                                         
60M20120706000000047980610030260022D02873202874700164300400000000002810080000000815153538                                     
60A2012070600000004798061003026DESC000000020265                                                                               
60A2012070600000004798061003026I   000000260743                                                                               
60R07201200000000000005000000000010000000000002607430000000000000000I                                                         
60M20120707000000047980610030260022D02875002879100164400400000000006680600000000815821598                                     
60A2012070700000004798061003026DESC000000040182                                                                               
60A2012070700000004798061003026I   000000627878                                                                               
60R07201200000000000006000000000010000000000006278780000000000000000I                                                         
60M20120709000000047980610030260022D02879402881700164500400000000002665460000000816088144                                     
60A2012070900000004798061003026DESC000000007715                                                                               
60A2012070900000004798061003026I   000000237651                                                                               
60A2012070900000004798061003026CANC000000021180                                                                               
60R07201200000000000007000000000010000000000002376510000000000000000I                                                         
60M20120710000000047980610030260022D02882002884500164600400000000003016100000000816389754                                     
60A2012071000000004798061003026DESC000000014169                                                                               
60A2012071000000004798061003026I   000000266824                                                                               
60A2012071000000004798061003026CANC000000020617                                                                               
60R07201200000000000008000000000010000000000002668240000000000000000I                                                         
60M20120711000000047980610030260022D02884802887000164700400000000003352500000000816725004                                     
60A2012071100000004798061003026DESC000000008256                                                                               
60A2012071100000004798061003026I   000000326994                                                                               
60R07201200000000000009000000000010000000000003269940000000000000000I                                                         
60M20120712000000047980610030260022D02887302890200164800400000000003820200000000817107024                                     
60A2012071200000004798061003026DESC000000023468                                                                               
60A2012071200000004798061003026I   000000358552                                                                               
60R07201200000000000010000000000010000000000003585520000000000000000I                                                         
60M20120713000000047980610030260022D02890502893100164900400000000004194650000000817526489                                     
60A2012071300000004798061003026DESC000000035083                                                                               
60A2012071300000004798061003026I   000000384382                                                                               
60R07201200000000000011000000000010000000000003843820000000000000000I                                                         
60M20120714000000047980610030260022D02893402897400165000400000000005890950000000818115584                                     
60A2012071400000004798061003026DESC000000019206                                                                               
60A2012071400000004798061003026I   000000569889                                                                               
60R07201200000000000012000000000010000000000005698890000000000000000I                                                         
60M20120716000000047980610030260022D02897702900000165100400000000002667940000000818382378                                     
60A2012071600000004798061003026DESC000000021606                                                                               
60A2012071600000004798061003026I   000000245188                                                                               
60R07201200000000000013000000000010000000000002451880000000000000000I                                                         
60M20120717000000047980610030260022D02900302902400165200400000000003047970000000818687175                                     
60A2012071700000004798061003026DESC000000008999                                                                               
60A2012071700000004798061003026I   000000295798                                                                               
60R07201200000000000014000000000010000000000002957980000000000000000I                                                         
60M20120718000000047980610030260022D02902702906700165300400000000006233850000000819310560                                     
60A2012071800000004798061003026DESC000000037162                                                                               
60A2012071800000004798061003026I   000000557763                                                                               
60A2012071800000004798061003026CANC000000028460                                                                               
60R07201200000000000015000000000010000000000005577630000000000000000I                                                         
60M20120719000000047980610030260022D02907002909300165400400000000004179730000000819728533                                     
60A2012071900000004798061003026DESC000000014771                                                                               
60A2012071900000004798061003026I   000000403202                                                                               
60R07201200000000000016000000000010000000000004032020000000000000000I                                                         
60M20120720000000047980610030260022D02909602912400165500400000000003846300000000820113163                                     
60A2012072000000004798061003026DESC000000047677                                                                               
60A2012072000000004798061003026I   000000336953                                                                               
60R07201200000000000017000000000010000000000003369530000000000000000I                                                         
60M20120721000000047980610030260022D02912702916000165600400000000007065410000000820819704                                     
60A2012072100000004798061003026DESC000000055177                                                                               
60A2012072100000004798061003026I   000000651364                                                                               
60R07201200000000000018000000000010000000000006513640000000000000000I                                                         
60M20120723000000047980610030260022D02916302919100165700400000000003023110000000821122015                                     
60A2012072300000004798061003026DESC000000006177                                                                               
60A2012072300000004798061003026I   000000296134                                                                               
60R07201200000000000019000000000010000000000002961340000000000000000I                                                         
60M20120724000000047980610030260022D02919402922300165800400000000007030600000000821825075                                     
60A2012072400000004798061003026DESC000000033388                                                                               
60A2012072400000004798061003026I   000000669672                                                                               
60R07201200000000000020000000000010000000000006696720000000000000000I                                                         
60M20120725000000047980610030260022D02922602924500165900400000000002645100000000822089585                                     
60A2012072500000004798061003026DESC000000011828                                                                               
60A2012072500000004798061003026I   000000252682                                                                               
60R07201200000000000021000000000010000000000002526820000000000000000I                                                         
60M20120727000000047980610030260022D02925002928700166000400000000005032390000000822592824                                     
60A2012072700000004798061003026DESC000000016170                                                                               
60A2012072700000004798061003026I   000000487069                                                                               
60R07201200000000000022000000000010000000000004870690000000000000000I                                                         
60M20120728000000047980610030260022D02929002933300166100400000000007239870000000823316811                                     
60A2012072800000004798061003026DESC000000043078                                                                               
60A2012072800000004798061003026I   000000680909                                                                               
60R07201200000000000023000000000010000000000006809090000000000000000I                                                         
60M20120730000000047980610030260022D02933602935400166200400000000002516300000000823568441                                     
60A2012073000000004798061003026DESC000000015721                                                                               
60A2012073000000004798061003026I   000000235909                                                                               
60R07201200000000000024000000000010000000000002359090000000000000000I                                                         
60M20120731000000047980610030260022D02935702938200166300400000000003106510000000823879092                                     
60A2012073100000004798061003026DESC000000015890                                                                               
60A2012073100000004798061003026I   000000294761                                                                               
60R07201200000000000025000000000010000000000002947610000000000000000I                                                         
7520120702201207310000000000000162171000DIA20120702                                          UN    000000000000000000000000000
7520120702201207310000000000000262171000DIA20120703                                          UN    000000000000000000000000000
7520120702201207310000000000000362171000DIA20120704                                          UN    000000000000000000000000000
7520120702201207310000000000000462171000DIA20120705                                          UN    000000000000000000000000000
7520120702201207310000000000000562171000DIA20120706                                          UN    000000000000000000000000000
7520120702201207310000000000000662171000DIA20120707                                          UN    000000000000000000000000000
7520120702201207310000000000000762171000DIA20120709                                          UN    000000000000000000000000000
7520120702201207310000000000000862171000DIA20120710                                          UN    000000000000000000000000000
7520120702201207310000000000000962171000DIA20120711                                          UN    000000000000000000000000000
7520120702201207310000000000001062171000DIA20120712                                          UN    000000000000000000000000000
7520120702201207310000000000001162171000DIA20120713                                          UN    000000000000000000000000000
7520120702201207310000000000001262171000DIA20120714                                          UN    000000000000000000000000000
7520120702201207310000000000001362171000DIA20120716                                          UN    000000000000000000000000000
7520120702201207310000000000001462171000DIA20120717                                          UN    000000000000000000000000000
7520120702201207310000000000001562171000DIA20120718                                          UN    000000000000000000000000000
7520120702201207310000000000001662171000DIA20120719                                          UN    000000000000000000000000000
7520120702201207310000000000001762171000DIA20120720                                          UN    000000000000000000000000000
7520120702201207310000000000001862171000DIA20120721                                          UN    000000000000000000000000000
7520120702201207310000000000001962171000DIA20120723                                          UN    000000000000000000000000000
7520120702201207310000000000002062171000DIA20120724                                          UN    000000000000000000000000000
7520120702201207310000000000002162171000DIA20120725                                          UN    000000000000000000000000000
7520120702201207310000000000002262171000DIA20120727                                          UN    000000000000000000000000000
7520120702201207310000000000002362171000DIA20120728                                          UN    000000000000000000000000000
7520120702201207310000000000002462171000DIA20120730                                          UN    000000000000000000000000000
7520120702201207310000000000002562171000DIA20120731                                          UN    000000000000000000000000000
90774984420001342010302423    600000010375000000259900000131                                                                 1