10774984420001342010302423    COMERCIAL DE TECIDOS PAULUK LTDA   PONTA GROSSA                  PR42322766502012060120120630331
11RUA DOM PEDRO II                  00337                                     84053000FLAVIO ANTONIO PAULUK       423227665000
60M20120601000000047980610030260022D02775802779400161400400000000004555580000000802737575                                     
60A2012060100000004798061003026DESC000000020700                                                                               
60A2012060100000004798061003026I   000000434858                                                                               
60R06201200000000000001000000000010000000000004348580000000000000000I                                                         
60M20120602000000047980610030260022D02879702885000161500400000000008217660000000803559341                                     
60A2012060200000004798061003026DESC000000055426                                                                               
60A2012060200000004798061003026I   000000766340                                                                               
60R06201200000000000002000000000010000000000007663400000000000000000I                                                         
60M20120604000000047980610030260022D02785302787600161600400000000003516960000000803911037                                     
60A2012060400000004798061003026DESC000000040698                                                                               
60A2012060400000004798061003026I   000000310998                                                                               
60R06201200000000000003000000000010000000000003109980000000000000000I                                                         
60M20120605000000047980610030260022D02787902791500161700400000000006006110000000804511648                                     
60A2012060500000004798061003026DESC000000027732                                                                               
60A2012060500000004798061003026I   000000572879                                                                               
60R06201200000000000004000000000010000000000005728790000000000000000I                                                         
60M20120606000000047980610030260022D02791802794200161800400000000004054540000000804917102                                     
60A2012060600000004798061003026DESC000000020822                                                                               
60A2012060600000004798061003026I   000000362332                                                                               
60A2012060600000004798061003026CANC000000022300                                                                               
60R06201200000000000005000000000010000000000003623320000000000000000I                                                         
60M20120608000000047980610030260022D02794502801500161900400000000011157200000000806032822                                     
60A2012060800000004798061003026DESC000000042179                                                                               
60A2012060800000004798061003026I   000001073541                                                                               
60R06201200000000000006000000000010000000000010735410000000000000000I                                                         
60M20120609000000047980610030260022D02801802806400162000400000000006268130000000806659635                                     
60A2012060900000004798061003026DESC000000038028                                                                               
60A2012060900000004798061003026I   000000588785                                                                               
60R06201200000000000007000000000010000000000005887850000000000000000I                                                         
60M20120611000000047980610030260022D02806702811200162100400000000006726570000000807332292                                     
60A2012061100000004798061003026DESC000000037899                                                                               
60A2012061100000004798061003026I   000000623488                                                                               
60A2012061100000004798061003026CANC000000011270                                                                               
60R06201200000000000008000000000010000000000006234880000000000000000I                                                         
60M20120612000000047980610030260022D02811502816100162200400000000006701640000000808002456                                     
60A2012061200000004798061003026DESC000000039009                                                                               
60A2012061200000004798061003026I   000000631155                                                                               
60R06201200000000000009000000000010000000000006311550000000000000000I                                                         
60M20120613000000047980610030260022D02816402819300162300400000000004008850000000808403341                                     
60A2012061300000004798061003026DESC000000013655                                                                               
60A2012061300000004798061003026I   000000387230                                                                               
60R06201200000000000010000000000010000000000003872300000000000000000I                                                         
60M20120614000000047980610030260022D02819602822500162400400000000003882800000000808791621                                     
60A2012061400000004798061003026DESC000000013881                                                                               
60A2012061400000004798061003026I   000000363489                                                                               
60A2012061400000004798061003026CANC000000010910                                                                               
60R06201200000000000011000000000010000000000003634890000000000000000I                                                         
60M20120615000000047980610030260022D02822802825800162500400000000004299730000000809221594                                     
60A2012061500000004798061003026DESC000000024953                                                                               
60A2012061500000004798061003026I   000000405020                                                                               
60R06201200000000000012000000000010000000000004050200000000000000000I                                                         
60M20120616000000047980610030260022D02826102828500162600400000000003258490000000809547443                                     
60A2012061600000004798061003026DESC000000015865                                                                               
60A2012061600000004798061003026I   000000309984                                                                               
60R06201200000000000013000000000010000000000003099840000000000000000I                                                         
60M20120618000000047980610030260022D02828802830400162700400000000002449620000000809792405                                     
60A2012061800000004798061003026DESC000000039841                                                                               
60A2012061800000004798061003026I   000000205121                                                                               
60R06201200000000000014000000000010000000000002051210000000000000000I                                                         
60M20120619000000047980610030260022D02830702833000162800400000000003447870000000810137192                                     
60A2012061900000004798061003026DESC000000008033                                                                               
60A2012061900000004798061003026I   000000336754                                                                               
60R06201200000000000015000000000010000000000003367540000000000000000I                                                         
60M20120620000000047980610030260022D02833302836400162900400000000004339740000000810571166                                     
60A2012062000000004798061003026DESC000000017849                                                                               
60A2012062000000004798061003026I   000000406645                                                                               
60A2012062000000004798061003026CANC000000009480                                                                               
60R06201200000000000016000000000010000000000004066450000000000000000I                                                         
60M20120621000000047980610030260022D02836702840900163000400000000005466000000000811117766                                     
60A2012062100000004798061003026DESC000000024712                                                                               
60A2012062100000004798061003026I   000000502068                                                                               
60A2012062100000004798061003026CANC000000019820                                                                               
60R06201200000000000017000000000010000000000005020680000000000000000I                                                         
60M20120622000000047980610030260022D02841202844200163100400000000004169670000000811534733                                     
60A2012062200000004798061003026DESC000000007236                                                                               
60A2012062200000004798061003026I   000000395581                                                                               
60A2012062200000004798061003026CANC000000014150                                                                               
60R06201200000000000018000000000010000000000003955810000000000000000I                                                         
60M20120623000000047980610030260022D02844502847600163200400000000004500310000000811984764                                     
60A2012062300000004798061003026DESC000000015176                                                                               
60A2012062300000004798061003026I   000000434855                                                                               
60R06201200000000000019000000000010000000000004348550000000000000000I                                                         
60M20120625000000047980610030260022D02847902849400163300400000000001538710000000812138635                                     
60A2012062500000004798061003026DESC000000008596                                                                               
60A2012062500000004798061003026I   000000145275                                                                               
60R06201200000000000020000000000010000000000001452750000000000000000I                                                         
60M20120626000000047980610030260022D02849702853300163400400000000004092280000000812547863                                     
60A2012062600000004798061003026DESC000000013029                                                                               
60A2012062600000004798061003026I   000000396199                                                                               
60R06201200000000000021000000000010000000000003961990000000000000000I                                                         
60M20120627000000047980610030260022D02853602855200163500400000000003217600000000812869623                                     
60A2012062700000004798061003026DESC000000009291                                                                               
60A2012062700000004798061003026I   000000312469                                                                               
60R06201200000000000022000000000010000000000003124690000000000000000I                                                         
60M20120628000000047980610030260022D02855502857300163600400000000001295910000000812999214                                     
60A2012062800000004798061003026DESC000000011687                                                                               
60A2012062800000004798061003026I   000000117904                                                                               
60R06201200000000000023000000000010000000000001179040000000000000000I                                                         
60M20120629000000047980610030260022D02857602860000163700400000000002098150000000813209029                                     
60A2012062900000004798061003026DESC000000007982                                                                               
60A2012062900000004798061003026I   000000201833                                                                               
60R06201200000000000024000000000010000000000002018330000000000000000I                                                         
60M20120630000000047980610030260022D02860302863500163800400000000005574070000000813766436                                     
60A2012063000000004798061003026DESC000000032236                                                                               
60A2012063000000004798061003026I   000000479551                                                                               
60A2012063000000004798061003026CANC000000045620                                                                               
60R06201200000000000025000000000010000000000004795510000000000000000I                                                         
7520120601201206300000000000000162171000DIA20120601                                          UN    000000000000000000000000000
7520120601201206300000000000000262171000DIA20120602                                          UN    000000000000000000000000000
7520120601201206300000000000000362171000DIA20120604                                          UN    000000000000000000000000000
7520120601201206300000000000000462171000DIA20120605                                          UN    000000000000000000000000000
7520120601201206300000000000000562171000DIA20120606                                          UN    000000000000000000000000000
7520120601201206300000000000000662171000DIA20120608                                          UN    000000000000000000000000000
7520120601201206300000000000000762171000DIA20120609                                          UN    000000000000000000000000000
7520120601201206300000000000000862171000DIA20120611                                          UN    000000000000000000000000000
7520120601201206300000000000000962171000DIA20120612                                          UN    000000000000000000000000000
7520120601201206300000000000001062171000DIA20120613                                          UN    000000000000000000000000000
7520120601201206300000000000001162171000DIA20120614                                          UN    000000000000000000000000000
7520120601201206300000000000001262171000DIA20120615                                          UN    000000000000000000000000000
7520120601201206300000000000001362171000DIA20120616                                          UN    000000000000000000000000000
7520120601201206300000000000001462171000DIA20120618                                          UN    000000000000000000000000000
7520120601201206300000000000001562171000DIA20120619                                          UN    000000000000000000000000000
7520120601201206300000000000001662171000DIA20120620                                          UN    000000000000000000000000000
7520120601201206300000000000001762171000DIA20120621                                          UN    000000000000000000000000000
7520120601201206300000000000001862171000DIA20120622                                          UN    000000000000000000000000000
7520120601201206300000000000001962171000DIA20120623                                          UN    000000000000000000000000000
7520120601201206300000000000002062171000DIA20120625                                          UN    000000000000000000000000000
7520120601201206300000000000002162171000DIA20120626                                          UN    000000000000000000000000000
7520120601201206300000000000002262171000DIA20120627                                          UN    000000000000000000000000000
7520120601201206300000000000002362171000DIA20120628                                          UN    000000000000000000000000000
7520120601201206300000000000002462171000DIA20120629                                          UN    000000000000000000000000000
7520120601201206300000000000002562171000DIA20120630                                          UN    000000000000000000000000000
90774984420001342010302423    600000010775000000259900000135                                                                 1