10774984420001342010302423    COMERCIAL DE TECIDOS PAULUK LTDA   PONTA GROSSA                  PR42322766502012030120120331331
11RUA DOM PEDRO II                  00337                                     84053000FLAVIO ANTONIO PAULUK       423227665000
60M20120301000000047980610030260022D02480802483800153800400000000003753240000000766066105                                     
60A2012030100000004798061003026DESC000000008320                                                                               
60A2012030100000004798061003026I   000000364604                                                                               
60A2012030100000004798061003026CANC000000002400                                                                               
60R03201200000000000001000000000010000000000003646040000000000000000I                                                         
60M20120302000000047980610030260022D02484102487200153900400000000003525290000000766418634                                     
60A2012030200000004798061003026DESC000000017061                                                                               
60A2012030200000004798061003026I   000000335468                                                                               
60R03201200000000000002000000000010000000000003354680000000000000000I                                                         
60M20120303000000047980610030260022D02487502490900154000400000000005219760000000766940610                                     
60A2012030300000004798061003026DESC000000016560                                                                               
60A2012030300000004798061003026I   000000505416                                                                               
60R03201200000000000003000000000010000000000005054160000000000000000I                                                         
60M20120305000000047980610030260022D02491202493900154100400000000003634560000000767304066                                     
60A2012030500000004798061003026DESC000000009518                                                                               
60A2012030500000004798061003026I   000000353938                                                                               
60R03201200000000000004000000000010000000000003539380000000000000000I                                                         
60M20120306000000047980610030260022D02494202498200154200400000000004689830000000767773049                                     
60A2012030600000004798061003026DESC000000020938                                                                               
60A2012030600000004798061003026I   000000448045                                                                               
60R03201200000000000005000000000010000000000004480450000000000000000I                                                         
60M20120307000000047980610030260022D02498502502400154300400000000003196010000000768092650                                     
60A2012030700000004798061003026DESC000000013214                                                                               
60A2012030700000004798061003026I   000000306387                                                                               
60R03201200000000000006000000000010000000000003063870000000000000000I                                                         
60M20120308000000047980610030260022D02502702506300154400400000000003855250000000768478175                                     
60A2012030800000004798061003026DESC000000017576                                                                               
60A2012030800000004798061003026I   000000367949                                                                               
60R03201200000000000007000000000010000000000003679490000000000000000I                                                         
60M20120309000000047980610030260022D02506602509400154500400000000003430150000000768821190                                     
60A2012030900000004798061003026DESC000000009742                                                                               
60A2012030900000004798061003026I   000000316783                                                                               
60A2012030900000004798061003026CANC000000016490                                                                               
60R03201200000000000008000000000010000000000003167830000000000000000I                                                         
60M20120310000000047980610030260022D02509702514500154600400000000005597200000000769380910                                     
60A2012031000000004798061003026DESC000000022371                                                                               
60A2012031000000004798061003026I   000000537349                                                                               
60R03201200000000000009000000000010000000000005373490000000000000000I                                                         
60M20120312000000047980610030260022D02514802517000154700400000000002778300000000769658740                                     
60A2012031200000004798061003026DESC000000015932                                                                               
60A2012031200000004798061003026I   000000261898                                                                               
60R03201200000000000010000000000010000000000002618980000000000000000I                                                         
60M20120313000000047980610030260022D02517302519300154800400000000001629910000000769821731                                     
60A2012031300000004798061003026DESC000000013216                                                                               
60A2012031300000004798061003026I   000000149775                                                                               
60R03201200000000000011000000000010000000000001497750000000000000000I                                                         
60M20120314000000047980610030260022D02519602522600154900400000000002807300000000770102461                                     
60A2012031400000004798061003026DESC000000016849                                                                               
60A2012031400000004798061003026I   000000263881                                                                               
60R03201200000000000012000000000010000000000002638810000000000000000I                                                         
60M20120315000000047980610030260022D02522902525400155000400000000002598100000000770362271                                     
60A2012031500000004798061003026DESC000000015508                                                                               
60A2012031500000004798061003026I   000000233027                                                                               
60A2012031500000004798061003026CANC000000011275                                                                               
60R03201200000000000013000000000010000000000002330270000000000000000I                                                         
60M20120316000000047980610030260022D02525702528300155100400000000002459160000000770608187                                     
60A2012031600000004798061003026DESC000000012568                                                                               
60A2012031600000004798061003026I   000000233348                                                                               
60R03201200000000000014000000000010000000000002333480000000000000000I                                                         
60M20120317000000047980610030260022D02528602532900155200400000000004290290000000771037216                                     
60A2012031700000004798061003026DESC000000028288                                                                               
60A2012031700000004798061003026I   000000400741                                                                               
60R03201200000000000015000000000010000000000004007410000000000000000I                                                         
60M20120319000000047980610030260022D02533202535700155300400000000003657200000000771402936                                     
60A2012031900000004798061003026DESC000000010843                                                                               
60A2012031900000004798061003026I   000000354877                                                                               
60R03201200000000000016000000000010000000000003548770000000000000000I                                                         
60M20120320000000047980610030260022D02536002538500155400400000000002136190000000771616555                                     
60A2012032000000004798061003026DESC000000014721                                                                               
60A2012032000000004798061003026I   000000198898                                                                               
60R03201200000000000017000000000010000000000001988980000000000000000I                                                         
60M20120321000000047980610030260022D02538802540800155500400000000002216540000000771838209                                     
60A2012032100000004798061003026DESC000000011664                                                                               
60A2012032100000004798061003026I   000000209990                                                                               
60R03201200000000000018000000000010000000000002099900000000000000000I                                                         
60M20120322000000047980610030260022D02541102544100155600400000000002866160000000772124825                                     
60A2012032200000004798061003026DESC000000012653                                                                               
60A2012032200000004798061003026I   000000273963                                                                               
60R03201200000000000019000000000010000000000002739630000000000000000I                                                         
60M20120323000000047980610030260022D02544402546800155700400000000003138440000000772438669                                     
60A2012032300000004798061003026DESC000000026766                                                                               
60A2012032300000004798061003026I   000000287078                                                                               
60R03201200000000000020000000000010000000000002870780000000000000000I                                                         
60M20120324000000047980610030260022D02547102551300155800400000000004640250000000772902694                                     
60A2012032400000004798061003026DESC000000035376                                                                               
60A2012032400000004798061003026I   000000419499                                                                               
60A2012032400000004798061003026CANC000000009150                                                                               
60R03201200000000000021000000000010000000000004194990000000000000000I                                                         
60M20120326000000047980610030260022D02551602553600155900400000000003455940000000773248288                                     
60A2012032600000004798061003026DESC000000018994                                                                               
60A2012032600000004798061003026I   000000326600                                                                               
60R03201200000000000022000000000010000000000003266000000000000000000I                                                         
60M20120327000000047980610030260022D02553902556800156000400000000003565180000000773604806                                     
60A2012032700000004798061003026DESC000000030296                                                                               
60A2012032700000004798061003026I   000000326222                                                                               
60R03201200000000000023000000000010000000000003262220000000000000000I                                                         
60M20120328000000047980610030260022D02557102561700156100400000000006514020000000774256208                                     
60A2012032800000004798061003026DESC000000031111                                                                               
60A2012032800000004798061003026I   000000608541                                                                               
60A2012032800000004798061003026CANC000000011750                                                                               
60R03201200000000000024000000000010000000000006085410000000000000000I                                                         
60M20120329000000047980610030260022D02562002565500156200400000000004638940000000774720102                                     
60A2012032900000004798061003026DESC000000034425                                                                               
60A2012032900000004798061003026I   000000375299                                                                               
60A2012032900000004798061003026CANC000000054170                                                                               
60R03201200000000000025000000000010000000000003752990000000000000000I                                                         
60M20120330000000047980610030260022D02565802570100156300400000000005894320000000775309534                                     
60A2012033000000004798061003026DESC000000031746                                                                               
60A2012033000000004798061003026I   000000557686                                                                               
60R03201200000000000026000000000010000000000005576860000000000000000I                                                         
60M20120331000000047980610030260022D02570402574500156400400000000006969820000000776006516                                     
60A2012033100000004798061003026DESC000000018061                                                                               
60A2012033100000004798061003026I   000000661351                                                                               
60A2012033100000004798061003026CANC000000017570                                                                               
60R03201200000000000027000000000010000000000006613510000000000000000I                                                         
7520120301201203310000000000000162171000DIA20120301                                          UN    000000000000000000000000000
7520120301201203310000000000000262171000DIA20120302                                          UN    000000000000000000000000000
7520120301201203310000000000000362171000DIA20120303                                          UN    000000000000000000000000000
7520120301201203310000000000000462171000DIA20120305                                          UN    000000000000000000000000000
7520120301201203310000000000000562171000DIA20120306                                          UN    000000000000000000000000000
7520120301201203310000000000000662171000DIA20120307                                          UN    000000000000000000000000000
7520120301201203310000000000000762171000DIA20120308                                          UN    000000000000000000000000000
7520120301201203310000000000000862171000DIA20120309                                          UN    000000000000000000000000000
7520120301201203310000000000000962171000DIA20120310                                          UN    000000000000000000000000000
7520120301201203310000000000001062171000DIA20120312                                          UN    000000000000000000000000000
7520120301201203310000000000001162171000DIA20120313                                          UN    000000000000000000000000000
7520120301201203310000000000001262171000DIA20120314                                          UN    000000000000000000000000000
7520120301201203310000000000001362171000DIA20120315                                          UN    000000000000000000000000000
7520120301201203310000000000001462171000DIA20120316                                          UN    000000000000000000000000000
7520120301201203310000000000001562171000DIA20120317                                          UN    000000000000000000000000000
7520120301201203310000000000001662171000DIA20120319                                          UN    000000000000000000000000000
7520120301201203310000000000001762171000DIA20120320                                          UN    000000000000000000000000000
7520120301201203310000000000001862171000DIA20120321                                          UN    000000000000000000000000000
7520120301201203310000000000001962171000DIA20120322                                          UN    000000000000000000000000000
7520120301201203310000000000002062171000DIA20120323                                          UN    000000000000000000000000000
7520120301201203310000000000002162171000DIA20120324                                          UN    000000000000000000000000000
7520120301201203310000000000002262171000DIA20120326                                          UN    000000000000000000000000000
7520120301201203310000000000002362171000DIA20120327                                          UN    000000000000000000000000000
7520120301201203310000000000002462171000DIA20120328                                          UN    000000000000000000000000000
7520120301201203310000000000002562171000DIA20120329                                          UN    000000000000000000000000000
7520120301201203310000000000002662171000DIA20120330                                          UN    000000000000000000000000000
7520120301201203310000000000002762171000DIA20120331                                          UN    000000000000000000000000000
90774984420001342010302423    600000011575000000279900000145                                                                 1